{
  "contractName": "PaymentSplitter",
  "abi": [
    {
      "inputs": [
        {
          "name": "payees",
          "type": "address[]"
        },
        {
          "name": "shares",
          "type": "uint256[]"
        }
      ],
      "payable": true,
      "stateMutability": "payable",
      "type": "constructor"
    },
    {
      "payable": true,
      "stateMutability": "payable",
      "type": "fallback"
    },
    {
      "anonymous": false,
      "inputs": [
        {
          "indexed": false,
          "name": "account",
          "type": "address"
        },
        {
          "indexed": false,
          "name": "shares",
          "type": "uint256"
        }
      ],
      "name": "PayeeAdded",
      "type": "event"
    },
    {
      "anonymous": false,
      "inputs": [
        {
          "indexed": false,
          "name": "to",
          "type": "address"
        },
        {
          "indexed": false,
          "name": "amount",
          "type": "uint256"
        }
      ],
      "name": "PaymentReleased",
      "type": "event"
    },
    {
      "anonymous": false,
      "inputs": [
        {
          "indexed": false,
          "name": "from",
          "type": "address"
        },
        {
          "indexed": false,
          "name": "amount",
          "type": "uint256"
        }
      ],
      "name": "PaymentReceived",
      "type": "event"
    },
    {
      "constant": true,
      "inputs": [],
      "name": "totalShares",
      "outputs": [
        {
          "name": "",
          "type": "uint256"
        }
      ],
      "payable": false,
      "stateMutability": "view",
      "type": "function"
    },
    {
      "constant": true,
      "inputs": [],
      "name": "totalReleased",
      "outputs": [
        {
          "name": "",
          "type": "uint256"
        }
      ],
      "payable": false,
      "stateMutability": "view",
      "type": "function"
    },
    {
      "constant": true,
      "inputs": [
        {
          "name": "account",
          "type": "address"
        }
      ],
      "name": "shares",
      "outputs": [
        {
          "name": "",
          "type": "uint256"
        }
      ],
      "payable": false,
      "stateMutability": "view",
      "type": "function"
    },
    {
      "constant": true,
      "inputs": [
        {
          "name": "account",
          "type": "address"
        }
      ],
      "name": "released",
      "outputs": [
        {
          "name": "",
          "type": "uint256"
        }
      ],
      "payable": false,
      "stateMutability": "view",
      "type": "function"
    },
    {
      "constant": true,
      "inputs": [
        {
          "name": "index",
          "type": "uint256"
        }
      ],
      "name": "payee",
      "outputs": [
        {
          "name": "",
          "type": "address"
        }
      ],
      "payable": false,
      "stateMutability": "view",
      "type": "function"
    },
    {
      "constant": false,
      "inputs": [
        {
          "name": "account",
          "type": "address"
        }
      ],
      "name": "release_bussiness",
      "outputs": [],
      "payable": false,
      "stateMutability": "nonpayable",
      "type": "function"
    },
    {
      "constant": false,
      "inputs": [
        {
          "name": "account",
          "type": "address"
        }
      ],
      "name": "release_vendor",
      "outputs": [],
      "payable": false,
      "stateMutability": "nonpayable",
      "type": "function"
    }
  ],
  "bytecode": "0x6080604052604051610b92380380610b92833981018060405281019080805182019291906020018051820192919050505060008151835114151561004257600080fd5b6000835111151561005257600080fd5b600090505b82518110156100b4576100a7838281518110151561007157fe5b90602001906020020151838381518110151561008957fe5b906020019060200201516100bc640100000000026401000000009004565b8080600101915050610057565b5050506102b7565b600073ffffffffffffffffffffffffffffffffffffffff168273ffffffffffffffffffffffffffffffffffffffff16141515156100f857600080fd5b60008111151561010757600080fd5b6000600260008473ffffffffffffffffffffffffffffffffffffffff1673ffffffffffffffffffffffffffffffffffffffff1681526020019081526020016000205414151561015557600080fd5b60048290806001815401808255809150509060018203906000526020600020016000909192909190916101000a81548173ffffffffffffffffffffffffffffffffffffffff021916908373ffffffffffffffffffffffffffffffffffffffff1602179055505080600260008473ffffffffffffffffffffffffffffffffffffffff1673ffffffffffffffffffffffffffffffffffffffff168152602001908152602001600020819055506102218160005461029664010000000002610817179091906401000000009004565b6000819055507f40c340f65e17194d14ddddb073d3c9f888e3cb52b5aae0c6c7706b4fbc905fac8282604051808373ffffffffffffffffffffffffffffffffffffffff1673ffffffffffffffffffffffffffffffffffffffff1681526020018281526020019250505060405180910390a15050565b60008082840190508381101515156102ad57600080fd5b8091505092915050565b6108cc806102c66000396000f300608060405260043610610083576000357c0100000000000000000000000000000000000000000000000000000000900463ffffffff1680630b8c54b2146100f05780633a98ef391461013357806365c7a61c1461015e5780638b83209b146101a15780639852595c1461020e578063ce7c2ac214610265578063e33b7de3146102bc575b7f6ef95f06320e7a25a04a175ca677b7052bdd97131872c2192525a629f51be7703334604051808373ffffffffffffffffffffffffffffffffffffffff1673ffffffffffffffffffffffffffffffffffffffff1681526020018281526020019250505060405180910390a1005b3480156100fc57600080fd5b50610131600480360381019080803573ffffffffffffffffffffffffffffffffffffffff1690602001909291905050506102e7565b005b34801561013f57600080fd5b5061014861050b565b6040518082815260200191505060405180910390f35b34801561016a57600080fd5b5061019f600480360381019080803573ffffffffffffffffffffffffffffffffffffffff169060200190929190505050610514565b005b3480156101ad57600080fd5b506101cc60048036038101908080359060200190929190505050610738565b604051808273ffffffffffffffffffffffffffffffffffffffff1673ffffffffffffffffffffffffffffffffffffffff16815260200191505060405180910390f35b34801561021a57600080fd5b5061024f600480360381019080803573ffffffffffffffffffffffffffffffffffffffff16906020019092919050505061077b565b6040518082815260200191505060405180910390f35b34801561027157600080fd5b506102a6600480360381019080803573ffffffffffffffffffffffffffffffffffffffff1690602001909291905050506107c4565b6040518082815260200191505060405180910390f35b3480156102c857600080fd5b506102d161080d565b6040518082815260200191505060405180910390f35b600080600080600260008673ffffffffffffffffffffffffffffffffffffffff1673ffffffffffffffffffffffffffffffffffffffff1681526020019081526020016000205411151561033957600080fd5b601492506103696001543073ffffffffffffffffffffffffffffffffffffffff163161081790919063ffffffff16565b91506103916064610383858561083890919063ffffffff16565b61087690919063ffffffff16565b9050600081141515156103a357600080fd5b6103f581600360008773ffffffffffffffffffffffffffffffffffffffff1673ffffffffffffffffffffffffffffffffffffffff1681526020019081526020016000205461081790919063ffffffff16565b600360008673ffffffffffffffffffffffffffffffffffffffff1673ffffffffffffffffffffffffffffffffffffffff1681526020019081526020016000208190555061044d8160015461081790919063ffffffff16565b6001819055508373ffffffffffffffffffffffffffffffffffffffff166108fc829081150290604051600060405180830381858888f19350505050158015610499573d6000803e3d6000fd5b507fdf20fd1e76bc69d672e4814fafb2c449bba3a5369d8359adf9e05e6fde87b0568482604051808373ffffffffffffffffffffffffffffffffffffffff1673ffffffffffffffffffffffffffffffffffffffff1681526020018281526020019250505060405180910390a150505050565b60008054905090565b600080600080600260008673ffffffffffffffffffffffffffffffffffffffff1673ffffffffffffffffffffffffffffffffffffffff1681526020019081526020016000205411151561056657600080fd5b605092506105966001543073ffffffffffffffffffffffffffffffffffffffff163161081790919063ffffffff16565b91506105be60646105b0858561083890919063ffffffff16565b61087690919063ffffffff16565b9050600081141515156105d057600080fd5b61062281600360008773ffffffffffffffffffffffffffffffffffffffff1673ffffffffffffffffffffffffffffffffffffffff1681526020019081526020016000205461081790919063ffffffff16565b600360008673ffffffffffffffffffffffffffffffffffffffff1673ffffffffffffffffffffffffffffffffffffffff1681526020019081526020016000208190555061067a8160015461081790919063ffffffff16565b6001819055508373ffffffffffffffffffffffffffffffffffffffff166108fc829081150290604051600060405180830381858888f193505050501580156106c6573d6000803e3d6000fd5b507fdf20fd1e76bc69d672e4814fafb2c449bba3a5369d8359adf9e05e6fde87b0568482604051808373ffffffffffffffffffffffffffffffffffffffff1673ffffffffffffffffffffffffffffffffffffffff1681526020018281526020019250505060405180910390a150505050565b600060048281548110151561074957fe5b9060005260206000200160009054906101000a900473ffffffffffffffffffffffffffffffffffffffff169050919050565b6000600360008373ffffffffffffffffffffffffffffffffffffffff1673ffffffffffffffffffffffffffffffffffffffff168152602001908152602001600020549050919050565b6000600260008373ffffffffffffffffffffffffffffffffffffffff1673ffffffffffffffffffffffffffffffffffffffff168152602001908152602001600020549050919050565b6000600154905090565b600080828401905083811015151561082e57600080fd5b8091505092915050565b600080600084141561084d576000915061086f565b828402905082848281151561085e57fe5b0414151561086b57600080fd5b8091505b5092915050565b60008060008311151561088857600080fd5b828481151561089357fe5b04905080915050929150505600a165627a7a723058207ce340ffbe2f42c0ea64645cd4a80145b21e1368317036b782c5621c74a121b40029",
  "source": "pragma solidity ^0.4.24;\n\nimport \"./SafeMath.sol\";\n\n/**\n * @title PaymentSplitter\n * @dev This contract can be used when payments need to be received by a group\n * of people and split proportionately to some number of shares they own.\n */\ncontract PaymentSplitter {\n  using SafeMath for uint256;\n\n  event PayeeAdded(address account, uint256 shares);\n  event PaymentReleased(address to, uint256 amount);\n  event PaymentReceived(address from, uint256 amount);\n\n  uint256 private _totalShares;\n  uint256 private _totalReleased;\n\n  mapping(address => uint256) private _shares;\n  mapping(address => uint256) private _released;\n  address[] private _payees;\n\n  /**\n   * @dev Constructor payees = beneficiarios , \n   */\n  constructor(address[] memory payees,uint256[] memory shares) public payable {\n    require(payees.length == shares.length);\n    require(payees.length > 0);\n\n    for (uint256 i = 0; i < payees.length; i++) {\n      _addPayee(payees[i], shares[i]);\n    }\n  }\n\n  /**\n   * @dev payable fallback\n   */\n  function () external payable {\n    emit PaymentReceived(msg.sender, msg.value);\n  }\n\n  /**\n   * @return the total shares of the contract.\n   */\n  function totalShares() public view returns(uint256) {\n    return _totalShares;\n  }\n\n  /**\n   * @return the total amount already released.\n   */\n  function totalReleased() public view returns(uint256) {\n    return _totalReleased;\n  }\n\n  /**\n   * @return the shares of an account.\n   */\n  function shares(address account) public view returns(uint256) {\n    return _shares[account];\n  }\n\n  /**\n   * @return the amount already released to an account.\n   */\n  function released(address account) public view returns(uint256) {\n    return _released[account];\n  }\n\n  /**\n   * @return the address of a payee.\n   */\n  function payee(uint256 index) public view returns(address) {\n    return _payees[index];\n  }\n\n  /**\n   * @dev Release one of the payee's proportional payment.\n   * @param account Whose payments will be released.\n   */\n  function release_bussiness(address account) public {\n    require(_shares[account] > 0);\n    uint256 bussinesspercentage = 20;\n    uint256 totalReceived = address(this).balance.add(_totalReleased);\n    uint payment = (totalReceived.mul(bussinesspercentage)).div(100);\n   /* \n    uint256 payment = totalReceived.mul(\n      _shares[account]).div(\n        _totalShares).sub(\n          _released[account]\n    );*/\n    require(payment != 0);\n\n    _released[account] = _released[account].add(payment);\n    _totalReleased = _totalReleased.add(payment);\n\n    account.transfer(payment);\n    emit PaymentReleased(account, payment);\n  }\n\n  function release_vendor(address account) public {\n    require(_shares[account] > 0);\n    uint256 bussinesspercentage = 80;\n    uint256 totalReceived = address(this).balance.add(_totalReleased);\n    uint payment = (totalReceived.mul(bussinesspercentage)).div(100);\n   /* \n    uint256 payment = totalReceived.mul(\n      _shares[account]).div(\n        _totalShares).sub(\n          _released[account]\n    );*/\n    require(payment != 0);\n\n    _released[account] = _released[account].add(payment);\n    _totalReleased = _totalReleased.add(payment);\n\n    account.transfer(payment);\n    emit PaymentReleased(account, payment);\n  }\n\n  /**\n   * @dev Add a new payee to the contract.\n   * @param account The address of the payee to add.\n   * @param shares_ The number of shares owned by the payee.\n   */\n  function _addPayee(address account, uint256 shares_) private {\n    require(account != address(0));\n    require(shares_ > 0);\n    require(_shares[account] == 0);\n\n    _payees.push(account);\n    _shares[account] = shares_;\n    _totalShares = _totalShares.add(shares_);\n    emit PayeeAdded(account, shares_);\n  }\n}\n",
  "sourcePath": "C:\\Users\\fmarquez\\Documents\\GitHub\\express-master\\express-master\\contracts\\PaymentSplitter.sol",
  "compiler": {
    "name": "solc",
    "version": "0.4.24+commit.e67f0147.Emscripten.clang"
  },
  "schemaVersion": "2.0.1",
  "updatedAt": "2019-01-07T15:17:41.163Z"
}