{
  "contractName": "PaymentSplitter",
  "abi": [
    {
      "inputs": [
        {
          "name": "payees",
          "type": "address"
        },
        {
          "name": "shares",
          "type": "uint256"
        }
      ],
      "payable": true,
      "stateMutability": "payable",
      "type": "constructor",
      "signature": "constructor"
    },
    {
      "payable": true,
      "stateMutability": "payable",
      "type": "fallback"
    },
    {
      "anonymous": false,
      "inputs": [
        {
          "indexed": false,
          "name": "account",
          "type": "address"
        },
        {
          "indexed": false,
          "name": "shares",
          "type": "uint256"
        }
      ],
      "name": "PayeeAdded",
      "type": "event",
      "signature": "0x40c340f65e17194d14ddddb073d3c9f888e3cb52b5aae0c6c7706b4fbc905fac"
    },
    {
      "anonymous": false,
      "inputs": [
        {
          "indexed": false,
          "name": "to",
          "type": "address"
        },
        {
          "indexed": false,
          "name": "amount",
          "type": "uint256"
        }
      ],
      "name": "PaymentReleased",
      "type": "event",
      "signature": "0xdf20fd1e76bc69d672e4814fafb2c449bba3a5369d8359adf9e05e6fde87b056"
    },
    {
      "anonymous": false,
      "inputs": [
        {
          "indexed": false,
          "name": "from",
          "type": "address"
        },
        {
          "indexed": false,
          "name": "amount",
          "type": "uint256"
        }
      ],
      "name": "PaymentReceived",
      "type": "event",
      "signature": "0x6ef95f06320e7a25a04a175ca677b7052bdd97131872c2192525a629f51be770"
    },
    {
      "constant": true,
      "inputs": [],
      "name": "totalShares",
      "outputs": [
        {
          "name": "",
          "type": "uint256"
        }
      ],
      "payable": false,
      "stateMutability": "view",
      "type": "function",
      "signature": "0x3a98ef39"
    },
    {
      "constant": true,
      "inputs": [],
      "name": "totalReleased",
      "outputs": [
        {
          "name": "",
          "type": "uint256"
        }
      ],
      "payable": false,
      "stateMutability": "view",
      "type": "function",
      "signature": "0xe33b7de3"
    },
    {
      "constant": true,
      "inputs": [
        {
          "name": "account",
          "type": "address"
        }
      ],
      "name": "shares",
      "outputs": [
        {
          "name": "",
          "type": "uint256"
        }
      ],
      "payable": false,
      "stateMutability": "view",
      "type": "function",
      "signature": "0xce7c2ac2"
    },
    {
      "constant": true,
      "inputs": [
        {
          "name": "account",
          "type": "address"
        }
      ],
      "name": "released",
      "outputs": [
        {
          "name": "",
          "type": "uint256"
        }
      ],
      "payable": false,
      "stateMutability": "view",
      "type": "function",
      "signature": "0x9852595c"
    },
    {
      "constant": true,
      "inputs": [
        {
          "name": "index",
          "type": "uint256"
        }
      ],
      "name": "payee",
      "outputs": [
        {
          "name": "",
          "type": "address"
        }
      ],
      "payable": false,
      "stateMutability": "view",
      "type": "function",
      "signature": "0x8b83209b"
    },
    {
      "constant": false,
      "inputs": [
        {
          "name": "account",
          "type": "address"
        }
      ],
      "name": "release_bussiness",
      "outputs": [],
      "payable": false,
      "stateMutability": "nonpayable",
      "type": "function",
      "signature": "0x0b8c54b2"
    },
    {
      "constant": false,
      "inputs": [
        {
          "name": "account",
          "type": "address"
        }
      ],
      "name": "release_vendor",
      "outputs": [],
      "payable": false,
      "stateMutability": "nonpayable",
      "type": "function",
      "signature": "0x65c7a61c"
    }
  ],
  "bytecode": "0x6080604052604051604080610b2683398101806040528101908080519060200190929190805190602001909291905050506100498282610050640100000000026401000000009004565b505061024b565b600073ffffffffffffffffffffffffffffffffffffffff168273ffffffffffffffffffffffffffffffffffffffff161415151561008c57600080fd5b60008111151561009b57600080fd5b6000600260008473ffffffffffffffffffffffffffffffffffffffff1673ffffffffffffffffffffffffffffffffffffffff168152602001908152602001600020541415156100e957600080fd5b60048290806001815401808255809150509060018203906000526020600020016000909192909190916101000a81548173ffffffffffffffffffffffffffffffffffffffff021916908373ffffffffffffffffffffffffffffffffffffffff1602179055505080600260008473ffffffffffffffffffffffffffffffffffffffff1673ffffffffffffffffffffffffffffffffffffffff168152602001908152602001600020819055506101b58160005461022a64010000000002610817179091906401000000009004565b6000819055507f40c340f65e17194d14ddddb073d3c9f888e3cb52b5aae0c6c7706b4fbc905fac8282604051808373ffffffffffffffffffffffffffffffffffffffff1673ffffffffffffffffffffffffffffffffffffffff1681526020018281526020019250505060405180910390a15050565b600080828401905083811015151561024157600080fd5b8091505092915050565b6108cc8061025a6000396000f300608060405260043610610083576000357c0100000000000000000000000000000000000000000000000000000000900463ffffffff1680630b8c54b2146100f05780633a98ef391461013357806365c7a61c1461015e5780638b83209b146101a15780639852595c1461020e578063ce7c2ac214610265578063e33b7de3146102bc575b7f6ef95f06320e7a25a04a175ca677b7052bdd97131872c2192525a629f51be7703334604051808373ffffffffffffffffffffffffffffffffffffffff1673ffffffffffffffffffffffffffffffffffffffff1681526020018281526020019250505060405180910390a1005b3480156100fc57600080fd5b50610131600480360381019080803573ffffffffffffffffffffffffffffffffffffffff1690602001909291905050506102e7565b005b34801561013f57600080fd5b5061014861050b565b6040518082815260200191505060405180910390f35b34801561016a57600080fd5b5061019f600480360381019080803573ffffffffffffffffffffffffffffffffffffffff169060200190929190505050610514565b005b3480156101ad57600080fd5b506101cc60048036038101908080359060200190929190505050610738565b604051808273ffffffffffffffffffffffffffffffffffffffff1673ffffffffffffffffffffffffffffffffffffffff16815260200191505060405180910390f35b34801561021a57600080fd5b5061024f600480360381019080803573ffffffffffffffffffffffffffffffffffffffff16906020019092919050505061077b565b6040518082815260200191505060405180910390f35b34801561027157600080fd5b506102a6600480360381019080803573ffffffffffffffffffffffffffffffffffffffff1690602001909291905050506107c4565b6040518082815260200191505060405180910390f35b3480156102c857600080fd5b506102d161080d565b6040518082815260200191505060405180910390f35b600080600080600260008673ffffffffffffffffffffffffffffffffffffffff1673ffffffffffffffffffffffffffffffffffffffff1681526020019081526020016000205411151561033957600080fd5b601492506103696001543073ffffffffffffffffffffffffffffffffffffffff163161081790919063ffffffff16565b91506103916064610383858561083890919063ffffffff16565b61087690919063ffffffff16565b9050600081141515156103a357600080fd5b6103f581600360008773ffffffffffffffffffffffffffffffffffffffff1673ffffffffffffffffffffffffffffffffffffffff1681526020019081526020016000205461081790919063ffffffff16565b600360008673ffffffffffffffffffffffffffffffffffffffff1673ffffffffffffffffffffffffffffffffffffffff1681526020019081526020016000208190555061044d8160015461081790919063ffffffff16565b6001819055508373ffffffffffffffffffffffffffffffffffffffff166108fc829081150290604051600060405180830381858888f19350505050158015610499573d6000803e3d6000fd5b507fdf20fd1e76bc69d672e4814fafb2c449bba3a5369d8359adf9e05e6fde87b0568482604051808373ffffffffffffffffffffffffffffffffffffffff1673ffffffffffffffffffffffffffffffffffffffff1681526020018281526020019250505060405180910390a150505050565b60008054905090565b600080600080600260008673ffffffffffffffffffffffffffffffffffffffff1673ffffffffffffffffffffffffffffffffffffffff1681526020019081526020016000205411151561056657600080fd5b605092506105966001543073ffffffffffffffffffffffffffffffffffffffff163161081790919063ffffffff16565b91506105be60646105b0858561083890919063ffffffff16565b61087690919063ffffffff16565b9050600081141515156105d057600080fd5b61062281600360008773ffffffffffffffffffffffffffffffffffffffff1673ffffffffffffffffffffffffffffffffffffffff1681526020019081526020016000205461081790919063ffffffff16565b600360008673ffffffffffffffffffffffffffffffffffffffff1673ffffffffffffffffffffffffffffffffffffffff1681526020019081526020016000208190555061067a8160015461081790919063ffffffff16565b6001819055508373ffffffffffffffffffffffffffffffffffffffff166108fc829081150290604051600060405180830381858888f193505050501580156106c6573d6000803e3d6000fd5b507fdf20fd1e76bc69d672e4814fafb2c449bba3a5369d8359adf9e05e6fde87b0568482604051808373ffffffffffffffffffffffffffffffffffffffff1673ffffffffffffffffffffffffffffffffffffffff1681526020018281526020019250505060405180910390a150505050565b600060048281548110151561074957fe5b9060005260206000200160009054906101000a900473ffffffffffffffffffffffffffffffffffffffff169050919050565b6000600360008373ffffffffffffffffffffffffffffffffffffffff1673ffffffffffffffffffffffffffffffffffffffff168152602001908152602001600020549050919050565b6000600260008373ffffffffffffffffffffffffffffffffffffffff1673ffffffffffffffffffffffffffffffffffffffff168152602001908152602001600020549050919050565b6000600154905090565b600080828401905083811015151561082e57600080fd5b8091505092915050565b600080600084141561084d576000915061086f565b828402905082848281151561085e57fe5b0414151561086b57600080fd5b8091505b5092915050565b60008060008311151561088857600080fd5b828481151561089357fe5b04905080915050929150505600a165627a7a72305820f85d31b29fbf5d020dc6074e7cc7bdb19a9256c239f5bcce03b05a569ad58a380029",
  "source": "pragma solidity ^0.4.24;\r\n\r\nimport \"./SafeMath.sol\";\r\n\r\n/**\r\n * @title PaymentSplitter\r\n * @dev This contract can be used when payments need to be received by a group\r\n * of people and split proportionately to some number of shares they own.\r\n */\r\ncontract PaymentSplitter {\r\n  using SafeMath for uint256;\r\n\r\n  event PayeeAdded(address account, uint256 shares);\r\n  event PaymentReleased(address to, uint256 amount);\r\n  event PaymentReceived(address from, uint256 amount);\r\n\r\n  uint256 private _totalShares;\r\n  uint256 private _totalReleased;\r\n\r\n  mapping(address => uint256) private _shares;\r\n  mapping(address => uint256) private _released;\r\n  address[] private _payees;\r\n\r\n  /**\r\n   * @dev Constructor payees = beneficiarios , \r\n   */\r\n  constructor(address payees,uint256 shares) public payable {\r\n      _addPayee(payees, shares);\r\n  }\r\n\r\n  /**\r\n   * @dev payable fallback\r\n   */\r\n  function () external payable {\r\n    emit PaymentReceived(msg.sender, msg.value);\r\n  }\r\n\r\n  /**\r\n   * @return the total shares of the contract.\r\n   */\r\n  function totalShares() public view returns(uint256) {\r\n    return _totalShares;\r\n  }\r\n\r\n  /**\r\n   * @return the total amount already released.\r\n   */\r\n  function totalReleased() public view returns(uint256) {\r\n    return _totalReleased;\r\n  }\r\n\r\n  /**\r\n   * @return the shares of an account.\r\n   */\r\n  function shares(address account) public view returns(uint256) {\r\n    return _shares[account];\r\n  }\r\n\r\n  /**\r\n   * @return the amount already released to an account.\r\n   */\r\n  function released(address account) public view returns(uint256) {\r\n    return _released[account];\r\n  }\r\n\r\n  /**\r\n   * @return the address of a payee.\r\n   */\r\n  function payee(uint256 index) public view returns(address) {\r\n    return _payees[index];\r\n  }\r\n\r\n  /**\r\n   * @dev Release one of the payee's proportional payment.\r\n   * @param account Whose payments will be released.\r\n   */\r\n  function release_bussiness(address account) public {\r\n    require(_shares[account] > 0);\r\n    uint256 bussinesspercentage = 20;\r\n    uint256 totalReceived = address(this).balance.add(_totalReleased);\r\n    uint payment = (totalReceived.mul(bussinesspercentage)).div(100);\r\n   /* \r\n    uint256 payment = totalReceived.mul(\r\n      _shares[account]).div(\r\n        _totalShares).sub(\r\n          _released[account]\r\n    );*/\r\n    require(payment != 0);\r\n\r\n    _released[account] = _released[account].add(payment);\r\n    _totalReleased = _totalReleased.add(payment);\r\n\r\n    account.transfer(payment);\r\n    emit PaymentReleased(account, payment);\r\n  }\r\n\r\n  function release_vendor(address account) public {\r\n    require(_shares[account] > 0);\r\n    uint256 bussinesspercentage = 80;\r\n    uint256 totalReceived = address(this).balance.add(_totalReleased);\r\n    uint payment = (totalReceived.mul(bussinesspercentage)).div(100);\r\n   /* \r\n    uint256 payment = totalReceived.mul(\r\n      _shares[account]).div(\r\n        _totalShares).sub(\r\n          _released[account]\r\n    );*/\r\n    require(payment != 0);\r\n\r\n    _released[account] = _released[account].add(payment);\r\n    _totalReleased = _totalReleased.add(payment);\r\n\r\n    account.transfer(payment);\r\n    emit PaymentReleased(account, payment);\r\n  }\r\n\r\n  /**\r\n   * @dev Add a new payee to the contract.\r\n   * @param account The address of the payee to add.\r\n   * @param shares_ The number of shares owned by the payee.\r\n   */\r\n  function _addPayee(address account, uint256 shares_) private {\r\n    require(account != address(0));\r\n    require(shares_ > 0);\r\n    require(_shares[account] == 0);\r\n\r\n    _payees.push(account);\r\n    _shares[account] = shares_;\r\n    _totalShares = _totalShares.add(shares_);\r\n    emit PayeeAdded(account, shares_);\r\n  }\r\n}\r\n",
  "sourcePath": "C:/Users/fmarquez/Documents/GitHub/Compartido/express-master/contracts/PaymentSplitter.sol",
  "compiler": {
    "name": "solc",
    "version": "0.4.24+commit.e67f0147.Emscripten.clang"
  },
  "schemaVersion": "3.0.0",
  "updatedAt": "2019-01-07T20:07:50.664Z",
  "devdoc": {
    "methods": {
      "payee(uint256)": {
        "return": "the address of a payee.\r"
      },
      "release_bussiness(address)": {
        "details": "Release one of the payee's proportional payment.\r",
        "params": {
          "account": "Whose payments will be released.\r"
        }
      },
      "released(address)": {
        "return": "the amount already released to an account.\r"
      },
      "shares(address)": {
        "return": "the shares of an account.\r"
      },
      "totalReleased()": {
        "return": "the total amount already released.\r"
      },
      "totalShares()": {
        "return": "the total shares of the contract.\r"
      }
    },
    "title": "PaymentSplitter\r"
  },
  "userdoc": {
    "methods": {}
  }
}