{
  "contractName": "Transfer",
  "abi": [
    {
      "constant": true,
      "inputs": [],
      "name": "idowner",
      "outputs": [
        {
          "name": "",
          "type": "address"
        }
      ],
      "payable": false,
      "stateMutability": "view",
      "type": "function"
    },
    {
      "inputs": [],
      "payable": false,
      "stateMutability": "nonpayable",
      "type": "constructor"
    },
    {
      "constant": false,
      "inputs": [
        {
          "name": "_idplayer",
          "type": "uint256"
        }
      ],
      "name": "getidPlayer",
      "outputs": [],
      "payable": false,
      "stateMutability": "nonpayable",
      "type": "function"
    },
    {
      "constant": false,
      "inputs": [
        {
          "name": "_idowner",
          "type": "address"
        }
      ],
      "name": "getidOwner",
      "outputs": [],
      "payable": false,
      "stateMutability": "nonpayable",
      "type": "function"
    },
    {
      "constant": false,
      "inputs": [
        {
          "name": "_value",
          "type": "uint256"
        }
      ],
      "name": "getValue",
      "outputs": [],
      "payable": true,
      "stateMutability": "payable",
      "type": "function"
    },
    {
      "constant": false,
      "inputs": [],
      "name": "Traspaso",
      "outputs": [
        {
          "name": "",
          "type": "string"
        }
      ],
      "payable": true,
      "stateMutability": "payable",
      "type": "function"
    }
  ],
  "bytecode": "0x608060405234801561001057600080fd5b50336000806101000a81548173ffffffffffffffffffffffffffffffffffffffff021916908373ffffffffffffffffffffffffffffffffffffffff16021790555061037e806100606000396000f30060806040526004361061006d576000357c0100000000000000000000000000000000000000000000000000000000900463ffffffff16806304603927146100725780630ff4c9161461009f57806356dca0c6146100bf578063911e8bea14610116578063f50263aa14610159575b600080fd5b34801561007e57600080fd5b5061009d600480360381019080803590602001909291905050506101dc565b005b6100bd600480360381019080803590602001909291905050506101e6565b005b3480156100cb57600080fd5b506100d46101f0565b604051808273ffffffffffffffffffffffffffffffffffffffff1673ffffffffffffffffffffffffffffffffffffffff16815260200191505060405180910390f35b34801561012257600080fd5b50610157600480360381019080803573ffffffffffffffffffffffffffffffffffffffff169060200190929190505050610216565b005b61016161025a565b6040518080602001828103825283818151815260200191508051906020019080838360005b838110156101a1578082015181840152602081019050610186565b50505050905090810190601f1680156101ce5780820380516001836020036101000a031916815260200191505b509250505060405180910390f35b8060038190555050565b8060018190555050565b600260009054906101000a900473ffffffffffffffffffffffffffffffffffffffff1681565b80600260006101000a81548173ffffffffffffffffffffffffffffffffffffffff021916908373ffffffffffffffffffffffffffffffffffffffff16021790555050565b60603373ffffffffffffffffffffffffffffffffffffffff166000809054906101000a900473ffffffffffffffffffffffffffffffffffffffff1673ffffffffffffffffffffffffffffffffffffffff161415156102b757600080fd5b600260009054906101000a900473ffffffffffffffffffffffffffffffffffffffff1673ffffffffffffffffffffffffffffffffffffffff166108fc678ac7230489e800009081150290604051600060405180830381858888f19350505050506040805190810160405280600781526020017f6163616261646f000000000000000000000000000000000000000000000000008152509050905600a165627a7a723058200f3a0d282a78b98308caa92aa31885244f9fb93e58025f0dcabf05409b921af40029",
  "source": "pragma solidity ^0.4.24;\r\ncontract Transfer{\r\n    address owner;\r\n    uint valor;\r\n    address public idowner;\r\n    uint idplayer;\r\n\r\n    constructor(){\r\n        owner = msg.sender;\r\n    }\r\n  \r\n\r\n    function getidPlayer (uint _idplayer){\r\n        idplayer=_idplayer;        \r\n    }\r\n\r\n    modifier isOwner(){\r\n        require(owner == msg.sender);\r\n        _;\r\n    }\r\n    \r\n    function getidOwner (address _idowner){\r\n        idowner = _idowner;        \r\n    }\r\n\r\n    function getValue (uint _value) payable {\r\n        valor = _value;\r\n    }\r\n    \r\n    function Traspaso () public isOwner payable returns (string){\r\n        //require (owner.balance > value);\r\n        idowner.send(10000000000000000000);\r\n        return (\"acabado\");\r\n\r\n        \r\n    }\r\n\r\n\r\n\r\n\r\n}\r\n\r\n\r\n",
  "sourcePath": "C:\\Users\\fmarquez\\Documents\\GitHub\\smarts_contract_futbol\\traspaso_jugador\\contracts\\transfer.sol",
  "compiler": {
    "name": "solc",
    "version": "0.4.24+commit.e67f0147.Emscripten.clang"
  },
  "schemaVersion": "2.0.1",
  "updatedAt": "2018-12-19T15:07:51.872Z"
}