{
  "contractName": "Transfer",
  "abi": [
    {
      "constant": true,
      "inputs": [],
      "name": "idowner",
      "outputs": [
        {
          "name": "",
          "type": "address"
        }
      ],
      "payable": false,
      "stateMutability": "view",
      "type": "function"
    },
    {
      "inputs": [],
      "payable": false,
      "stateMutability": "nonpayable",
      "type": "constructor"
    },
    {
      "constant": false,
      "inputs": [
        {
          "name": "_idplayer",
          "type": "uint256"
        }
      ],
      "name": "getidPlayer",
      "outputs": [],
      "payable": false,
      "stateMutability": "nonpayable",
      "type": "function"
    },
    {
      "constant": false,
      "inputs": [
        {
          "name": "_idowner",
          "type": "address"
        }
      ],
      "name": "getidOwner",
      "outputs": [],
      "payable": false,
      "stateMutability": "nonpayable",
      "type": "function"
    },
    {
      "constant": false,
      "inputs": [
        {
          "name": "_value",
          "type": "uint256"
        }
      ],
      "name": "getValue",
      "outputs": [],
      "payable": true,
      "stateMutability": "payable",
      "type": "function"
    },
    {
      "constant": false,
      "inputs": [],
      "name": "Traspaso",
      "outputs": [
        {
          "name": "",
          "type": "string"
        }
      ],
      "payable": true,
      "stateMutability": "payable",
      "type": "function"
    },
    {
      "constant": false,
      "inputs": [],
      "name": "getTraspaso",
      "outputs": [
        {
          "name": "",
          "type": "address"
        },
        {
          "name": "",
          "type": "address"
        },
        {
          "name": "",
          "type": "uint256"
        },
        {
          "name": "",
          "type": "uint256"
        },
        {
          "name": "",
          "type": "uint256"
        },
        {
          "name": "",
          "type": "uint256"
        }
      ],
      "payable": false,
      "stateMutability": "nonpayable",
      "type": "function"
    }
  ],
  "bytecode": "0x608060405234801561001057600080fd5b50336000806101000a81548173ffffffffffffffffffffffffffffffffffffffff021916908373ffffffffffffffffffffffffffffffffffffffff160217905550610491806100606000396000f300608060405260043610610078576000357c0100000000000000000000000000000000000000000000000000000000900463ffffffff168063046039271461007d5780630ff4c916146100aa57806356dca0c6146100ca5780636ad121ed14610121578063911e8bea146101c7578063f50263aa1461020a575b600080fd5b34801561008957600080fd5b506100a86004803603810190808035906020019092919050505061028d565b005b6100c860048036038101908080359060200190929190505050610297565b005b3480156100d657600080fd5b506100df6102a1565b604051808273ffffffffffffffffffffffffffffffffffffffff1673ffffffffffffffffffffffffffffffffffffffff16815260200191505060405180910390f35b34801561012d57600080fd5b506101366102c7565b604051808773ffffffffffffffffffffffffffffffffffffffff1673ffffffffffffffffffffffffffffffffffffffff1681526020018673ffffffffffffffffffffffffffffffffffffffff1673ffffffffffffffffffffffffffffffffffffffff168152602001858152602001848152602001838152602001828152602001965050505050505060405180910390f35b3480156101d357600080fd5b50610208600480360381019080803573ffffffffffffffffffffffffffffffffffffffff169060200190929190505050610314565b005b610212610358565b6040518080602001828103825283818151815260200191508051906020019080838360005b83811015610252578082015181840152602081019050610237565b50505050905090810190601f16801561027f5780820380516001836020036101000a031916815260200191505b509250505060405180910390f35b8060038190555050565b8060018190555050565b600260009054906101000a900473ffffffffffffffffffffffffffffffffffffffff1681565b60008060008060008033600260009054906101000a900473ffffffffffffffffffffffffffffffffffffffff16600654600154600854600954955095509550955095509550909192939495565b80600260006101000a81548173ffffffffffffffffffffffffffffffffffffffff021916908373ffffffffffffffffffffffffffffffffffffffff16021790555050565b60603373ffffffffffffffffffffffffffffffffffffffff166000809054906101000a900473ffffffffffffffffffffffffffffffffffffffff1673ffffffffffffffffffffffffffffffffffffffff161415156103b557600080fd5b600260009054906101000a900473ffffffffffffffffffffffffffffffffffffffff1673ffffffffffffffffffffffffffffffffffffffff166108fc678ac7230489e800009081150290604051600060405180830381858888f19350505050504360088190555042600681905550456009819055506040805190810160405280600781526020017f6163616261646f000000000000000000000000000000000000000000000000008152509050905600a165627a7a72305820eb3fd7635c59c1c6399d8b1e56a62ca9f0195d6f9b861c923449248386afb1d30029",
  "source": "pragma solidity ^0.4.24;\r\n\r\n\r\ncontract Transfer{\r\n    address owner;\r\n    uint valor;\r\n    address public idowner;\r\n    uint idplayer;\r\n    address comprador;\r\n    address vendedor;\r\n    uint timestamp;\r\n    uint value;\r\n    uint bloque;\r\n    uint gas;\r\n\r\n\r\n\r\n    constructor(){\r\n        owner = msg.sender;\r\n        \r\n    }\r\n  \r\n\r\n    function getidPlayer (uint _idplayer){\r\n        idplayer=_idplayer;\r\n    }\r\n\r\n    modifier isOwner(){\r\n        require(owner == msg.sender);\r\n        _;\r\n    }\r\n    \r\n    function getidOwner (address _idowner){\r\n        idowner = _idowner;        \r\n        \r\n    }\r\n\r\n    function getValue (uint _value) payable {\r\n        valor = _value;\r\n    }\r\n    \r\n    function Traspaso () public isOwner payable returns (string){\r\n        //require (owner.balance > value);\r\n        idowner.send(10000000000000000000);\r\n        bloque = block.number;\r\n        timestamp = block.timestamp;\r\n        gas = block.gaslimit;\r\n        return (\"acabado\");\r\n\r\n\r\n        \r\n    }\r\n\r\n    function getTraspaso () returns (address, address, uint, uint, uint, uint){\r\n        return(msg.sender, idowner, timestamp, valor, bloque,gas);\r\n    }\r\n}\r\n\r\n\r\n\r\n\r\n",
  "sourcePath": "C:\\Users\\fmarquez\\Documents\\GitHub\\Compartido\\smarts_contract_futbol\\traspaso_jugador\\contracts\\transfer.sol",
  "compiler": {
    "name": "solc",
    "version": "0.4.24+commit.e67f0147.Emscripten.clang"
  },
  "schemaVersion": "2.0.1",
  "updatedAt": "2018-12-20T13:37:25.626Z"
}