{
  "contractName": "pago",
  "abi": [
    {
      "constant": true,
      "inputs": [],
      "name": "vendedor",
      "outputs": [
        {
          "name": "",
          "type": "address"
        }
      ],
      "payable": false,
      "stateMutability": "view",
      "type": "function"
    },
    {
      "constant": true,
      "inputs": [],
      "name": "owner",
      "outputs": [
        {
          "name": "",
          "type": "address"
        }
      ],
      "payable": false,
      "stateMutability": "view",
      "type": "function"
    },
    {
      "constant": true,
      "inputs": [],
      "name": "state",
      "outputs": [
        {
          "name": "",
          "type": "uint8"
        }
      ],
      "payable": false,
      "stateMutability": "view",
      "type": "function"
    },
    {
      "constant": true,
      "inputs": [],
      "name": "valor",
      "outputs": [
        {
          "name": "",
          "type": "uint256"
        }
      ],
      "payable": false,
      "stateMutability": "view",
      "type": "function"
    },
    {
      "constant": false,
      "inputs": [
        {
          "name": "valor1",
          "type": "uint256"
        }
      ],
      "name": "Pago",
      "outputs": [],
      "payable": true,
      "stateMutability": "payable",
      "type": "function"
    }
  ],
  "bytecode": "0x608060405273babbf64fc88d7b845284dda47eeebe6ad98863d4600160006101000a81548173ffffffffffffffffffffffffffffffffffffffff021916908373ffffffffffffffffffffffffffffffffffffffff16021790555034801561006557600080fd5b506102a1806100756000396000f30060806040526004361061006d576000357c0100000000000000000000000000000000000000000000000000000000900463ffffffff1680633182237f146100725780638da5cb5b146100c9578063c19d93fb14610120578063dd739b1d14610159578063ecbac7cf14610179575b600080fd5b34801561007e57600080fd5b506100876101a4565b604051808273ffffffffffffffffffffffffffffffffffffffff1673ffffffffffffffffffffffffffffffffffffffff16815260200191505060405180910390f35b3480156100d557600080fd5b506100de6101ca565b604051808273ffffffffffffffffffffffffffffffffffffffff1673ffffffffffffffffffffffffffffffffffffffff16815260200191505060405180910390f35b34801561012c57600080fd5b506101356101f0565b6040518082600281111561014557fe5b60ff16815260200191505060405180910390f35b61017760048036038101908080359060200190929190505050610203565b005b34801561018557600080fd5b5061018e61026f565b6040518082815260200191505060405180910390f35b600160009054906101000a900473ffffffffffffffffffffffffffffffffffffffff1681565b600260009054906101000a900473ffffffffffffffffffffffffffffffffffffffff1681565b600260149054906101000a900460ff1681565b600160009054906101000a900473ffffffffffffffffffffffffffffffffffffffff1673ffffffffffffffffffffffffffffffffffffffff166108fc829081150290604051600060405180830381858888f1935050505015801561026b573d6000803e3d6000fd5b5050565b600054815600a165627a7a72305820be8a1c50de7887ce69a5ea0939e593a1513215d19914fb25e039e7b154f20a4a0029",
  "source": "pragma solidity ^0.4.24;\r\n\r\ncontract pago{\r\n    uint public valor;\r\n    address public vendedor = 0xbABbF64Fc88d7b845284DDa47eeeBE6Ad98863d4;\r\n    enum Estado { Created, Locked, Inactive }\r\n   \r\n    address public owner;\r\n    Estado public state;\r\n\r\n\r\n    function Pago(uint valor1) payable {\r\n       vendedor.transfer(valor1);\r\n    }\r\n\r\n}",
  "sourcePath": "C:\\Users\\fmarquez\\Documents\\GitHub\\Compartido\\futbol\\contracts\\pago.sol",
  "compiler": {
    "name": "solc",
    "version": "0.4.24+commit.e67f0147.Emscripten.clang"
  },
  "schemaVersion": "2.0.1",
  "updatedAt": "2018-12-17T13:25:19.194Z"
}