{
  "contractName": "PlayertoPlayer",
  "abi": [
    {
      "constant": true,
      "inputs": [],
      "name": "owner",
      "outputs": [
        {
          "name": "",
          "type": "address"
        }
      ],
      "payable": false,
      "stateMutability": "view",
      "type": "function"
    },
    {
      "constant": true,
      "inputs": [],
      "name": "wallet_sistema",
      "outputs": [
        {
          "name": "",
          "type": "address"
        }
      ],
      "payable": false,
      "stateMutability": "view",
      "type": "function"
    },
    {
      "inputs": [],
      "payable": false,
      "stateMutability": "nonpayable",
      "type": "constructor"
    },
    {
      "constant": false,
      "inputs": [
        {
          "name": "precio",
          "type": "int256"
        },
        {
          "name": "wallet_vendedor",
          "type": "address"
        }
      ],
      "name": "Traspaso",
      "outputs": [],
      "payable": true,
      "stateMutability": "payable",
      "type": "function"
    },
    {
      "constant": false,
      "inputs": [],
      "name": "getWalletSystem",
      "outputs": [
        {
          "name": "",
          "type": "address"
        }
      ],
      "payable": false,
      "stateMutability": "nonpayable",
      "type": "function"
    },
    {
      "constant": false,
      "inputs": [],
      "name": "getnumber",
      "outputs": [
        {
          "name": "",
          "type": "uint256"
        }
      ],
      "payable": false,
      "stateMutability": "nonpayable",
      "type": "function"
    },
    {
      "constant": false,
      "inputs": [],
      "name": "getaddressowner",
      "outputs": [
        {
          "name": "",
          "type": "address"
        }
      ],
      "payable": false,
      "stateMutability": "nonpayable",
      "type": "function"
    }
  ],
  "bytecode": "0x608060405273039ceac27b6276d6452e531926e368654b590292600160006101000a81548173ffffffffffffffffffffffffffffffffffffffff021916908373ffffffffffffffffffffffffffffffffffffffff16021790555034801561006557600080fd5b50336000806101000a81548173ffffffffffffffffffffffffffffffffffffffff021916908373ffffffffffffffffffffffffffffffffffffffff1602179055506103ad806100b56000396000f300608060405260043610610078576000357c0100000000000000000000000000000000000000000000000000000000900463ffffffff168063486b72171461007d5780638da5cb5b146100a85780639b89eb75146100ff578063c32435041461013f578063c57c19d714610196578063cffbc716146101ed575b600080fd5b34801561008957600080fd5b50610092610244565b6040518082815260200191505060405180910390f35b3480156100b457600080fd5b506100bd61024d565b604051808273ffffffffffffffffffffffffffffffffffffffff1673ffffffffffffffffffffffffffffffffffffffff16815260200191505060405180910390f35b61013d60048036038101908080359060200190929190803573ffffffffffffffffffffffffffffffffffffffff169060200190929190505050610272565b005b34801561014b57600080fd5b50610154610329565b604051808273ffffffffffffffffffffffffffffffffffffffff1673ffffffffffffffffffffffffffffffffffffffff16815260200191505060405180910390f35b3480156101a257600080fd5b506101ab610331565b604051808273ffffffffffffffffffffffffffffffffffffffff1673ffffffffffffffffffffffffffffffffffffffff16815260200191505060405180910390f35b3480156101f957600080fd5b5061020261035b565b604051808273ffffffffffffffffffffffffffffffffffffffff1673ffffffffffffffffffffffffffffffffffffffff16815260200191505060405180910390f35b60006001905090565b6000809054906101000a900473ffffffffffffffffffffffffffffffffffffffff1681565b600080600060646014860281151561028657fe5b05925082915082850394508490508373ffffffffffffffffffffffffffffffffffffffff166108fc839081150290604051600060405180830381858888f193505050501580156102da573d6000803e3d6000fd5b508373ffffffffffffffffffffffffffffffffffffffff166108fc829081150290604051600060405180830381858888f19350505050158015610321573d6000803e3d6000fd5b505050505050565b600033905090565b6000600160009054906101000a900473ffffffffffffffffffffffffffffffffffffffff16905090565b600160009054906101000a900473ffffffffffffffffffffffffffffffffffffffff16815600a165627a7a72305820e5d00593ba63c3c5d025a9ffb6c2737b635d0fb0205153013bd8543dcc695a000029",
  "source": "pragma solidity ^0.4.24;\r\nimport \"./SafeMath.sol\";\r\n\r\ncontract PlayertoPlayer{\r\n\r\n    address public owner;\r\n\r\n    struct Player{\r\n        uint bolsa;\r\n        uint monto;\r\n        address wallet;\r\n    }\r\n    address public wallet_sistema = 0x039CEac27B6276d6452E531926E368654B590292;\r\n    mapping (address => PlayertoPlayer) private Players;\r\n\r\n    constructor() {\r\n        owner = msg.sender;        \r\n    }\r\n    function Traspaso(int256 precio, address wallet_vendedor) public payable {\r\n         int256 comision;\r\n         uint cobrado;\r\n         uint traspaso;\r\n         comision =(int256(precio) * int256(20) / int256(100));\r\n         cobrado=uint(comision);\r\n         precio = (precio - comision);\r\n         traspaso=uint(precio);\r\n         wallet_vendedor.transfer(cobrado);\r\n         wallet_vendedor.transfer(traspaso);\r\n    }\r\n    function getWalletSystem () public returns (address){\r\n        return (wallet_sistema);\r\n    }\r\n    function getnumber () public returns (uint){\r\n        return (1);\r\n    }\r\n    function getaddressowner () returns (address){\r\n        return (msg.sender);\r\n    }\r\n\r\n}",
  "sourcePath": "C:\\Users\\fmarquez\\Documents\\GitHub\\Compartido\\futbol\\contracts\\PlayerToPlayer.sol",
  "compiler": {
    "name": "solc",
    "version": "0.4.24+commit.e67f0147.Emscripten.clang"
  },
  "schemaVersion": "2.0.1",
  "updatedAt": "2018-12-17T13:25:19.199Z"
}